:020000040802F0
:10000000B00500209D0102086D220208D11F0208E0
:1000100069220208B50202087526020800000000E5
:10002000000000000000000000000000752202082F
:10003000450302080000000071220208792202082C
:10004000B7010208B7010208B7010208B7010208A8
:10005000B7010208B7010208B7010208B701020898
:10006000B7010208B7010208B7010208B701020888
:10007000B7010208B7010208B7010208B701020878
:10008000B7010208B7010208B7010208B701020868
:10009000B7010208B7010208B7010208B701020858
:1000A000B7010208B7010208B7010208B701020848
:1000B000B7010208B7010208B7010208B701020838
:1000C000B7010208B7010208B7010208B701020828
:1000D000B701020869260208B7010208B701020841
:1000E000B7010208B7010208B7010208B701020808
:1000F000B7010208B7010208B7010208B7010208F8
:10010000B7010208B7010208B7010208B7010208E7
:10011000B7010208B7010208B7010208B7010208D7
:10012000B7010208B7010208B9020208B7010208C4
:10013000B7010208B7010208B7010208B7010208B7
:10014000B7010208B7010208B7010208B7010208A7
:10015000B7010208B7010208C5020208B701020888
:10016000B7010208B7010208B7010208B701020887
:10017000B7010208B7010208B70102080000000039
:10018000B7010208B7010208DFF80CD000F07AF8D6
:100190000048004779260208B0050020064880473D
:1001A00006480047FEE7FEE7FEE7FEE7FEE7FEE75C
:1001B000FEE7FEE7FEE7FEE72523020889010208C5
:1001C0002DE9F05F0546002092469B46884606468C
:1001D000814640241BE0284641464746224600F01F
:1001E00041F853465A46C01A914110D31146184659
:1001F000224600F028F82D1A67EB01084F462246E8
:100200000120002100F01FF817EB00094E41201ECD
:10021000A4F10104DFDC484631462A464346BDE8E6
:10022000F09FD2B201E000F8012B491EFBD27047CB
:100230000022F6E710B513460A4604461946FFF7B2
:10024000F0FF204610BD202A04DB203A00FA02F11C
:10025000002070479140C2F1200320FA03F31943B4
:1002600090407047202A04DB203A21FA02F0002156
:10027000704721FA02F3D040C2F1200291400843B6
:10028000194670471CB50948009009480190054679
:10029000009C06E0E06840F0010394E807009847FE
:1002A0001034AC42F6D3FFF773FF000018270208A2
:1002B00038270208FEE7000040F21400C2F20000F6
:1002C00000F0A0B840F27400C2F2000000F09AB84A
:1002D00040F21C10C2F200000068002141638163FB
:1002E0007047000040F21001C2F200010978642852
:1002F0004FF0640228BF1046012940F21C11C2F2DF
:100300000001096807BF486300204A63C0F1640028
:1003100018BFC0B28863704710B540F21C14C2F217
:1003200000042046002101F047FA20460421BDE8E0
:10033000104001F041BA000040F21001C2F2000189
:10034000087070477047000072B600BFFEE70000FB
:1003500070B5866D044600F0CDFA94F83510022988
:1003600028D105462068216C026822F0160202603E
:10037000426922F08002426109B9A16C19B1016899
:1003800021F008010160016821F00101016000BF56
:1003900020680068C00715D000F0ACFA401B0628A2
:1003A000F6D320206065032084F83500002184F80E
:1003B000341070BD802060650120002184F8341065
:1003C00070BD00BFE06D3F2101FA00F0B060012078
:1003D00084F835000020002184F8341070BD00003E
:1003E00090F83510022909D1052180F835100068F0
:1003F000016821F001010160002070478021416502
:1004000001207047F0B581B00021009140F2080151
:10041000C2F200010B68D0E9166148F2B5153768E1
:100420000822C1F64E358A403A42A3FB05350CD06E
:1004300003681C68640708D51C6824F004041C6069
:10044000B260426D42F00102426501228A403A42A6
:1004500008D003685B691B0604D5B260426D42F0A8
:100460000202426504228A403A4208D003681B68AF
:100470009B0704D5B260426D42F00402426510222F
:100480008A403A4219D001680B681B0715D5B26043
:100490000B680A685B0309D4D20509D40A6822F004
:1004A00008020A60016C29B907E000BF110341D4BA
:1004B000016C11B1044688472046C26D202101FA23
:1004C00002F33B4243D001680F68FF063FD5B3609B
:1004D00090F835700B68052F1CD123F016030B60C4
:1004E0004B6923F080034B61036C0BB9836C1BB128
:1004F0000B6823F008030B603F219140B16001219C
:1005000080F83510016D0022002980F8342054D184
:1005100058E000BF0A685B0310D4D20512D40A6801
:1005200022F010020A60012180F83510002180F8C5
:10053000341007E0816C0029BCD1BEE7110301D45F
:10054000416C00E0C16B11B1044688472046416D03
:10055000C1B3416DC9072ED0052180F8351001685F
:10056000AA0A0B6823F001030B60009B013393423E
:1005700000931AD80B68DB0717D0009B0133934216
:10058000009312D80B68DB070FD0009B0133934216
:1005900000930AD80B68DB0707D0009B0133934216
:1005A000009302D80B68DB07DFD1012180F83510FA
:1005B000002180F83410C16C21B101B0BDE8F040D9
:1005C000084700BF01B0F0BD2DE9F041044600F03E
:1005D00091F9ECB10546022084F83500002021682D
:1005E00084F83400086820F0010008602168086879
:1005F000C00711D000F07EF9401B0528F6D903256D
:1006000020230320636584F83550BDE8F08100BFE6
:100610000120BDE8F08100BF086848F23F02CFF238
:100620001002D4E9013500EA020C04F10C0898E844
:10063000C10143EA0C032B431843D4E9072E30438E
:1006400038431043626A40EA0E00042A40EA080375
:100650001CD1206BD4E90A2E40EA0E001843086032
:100660004869BEF1000F20F0030040EA020040F0AC
:10067000040C11D0B8F5005F36D0B8F1000F45D1A9
:10068000022A46D0012A3BD032B942E00B604869C9
:1006900020F0070040EA020C01F0F8004AF6AB2215
:1006A0001038CAF6AA22A0FB02231A0942F21073DC
:1006B000C1F814C0C0F602039A5C40F2FF335F2811
:1006C0004FF03F0021EA030100FA02F088BF043135
:1006D000C4E916128860002301250020636584F8B0
:1006E0003550BDE8F08100BF032AD5D8012540234D
:1006F0000120DFE802F0030E030500BF82E700BF20
:10070000AEF1C070B0FA80F0400904E0032A04D3CF
:10071000C2D1CEF300600028BED0012540230120C5
:10072000636584F83550BDE8F0810000B0B504463B
:1007300000F0E0F8054640F20000C2F20000007848
:10074000611C18BF044400BF00F0D4F8401BA04255
:10075000FAD3B0BD2DE9F04F83B000F1200200F1D3
:100760003E4741F60045009207F1FF77C4F20205CB
:1007700008224FEAB726A84208BF072200254FF0FB
:1007800000084FF00009072E38BF4FEAB722019248
:100790000AE000BF09F1010908F10208B9F1100FE0
:1007A00005F1040500F0A2800F68012202FA09FE9B
:1007B00017EA0E0AEED0D1F804C003220CF00307AA
:1007C0007E1E02FA08F4012E6FEA040B12D8846828
:1007D000CE6804EA0B0406FA08F6344384604468E1
:1007E00024EA0E06CCF3001404FA09F4264346600A
:1007F00004E000BF032F01D103271EE0C6688C6808
:1008000006EA0B0604FA08F42643022FC66014D148
:100810006FF00302009E02EA590756F807C005F080
:100820001C040F220B69A2402CEA0202A3401A43C7
:10083000F251D1F804C00CF00307026807FA08F37C
:1008400002EA0B021A431CF4403F0260A2D00022CD
:1008500043F644030292C4F202031A6843F60044CA
:1008600042F480421A601A68C4F2010402F4804221
:100870000292029A29F003024FF6084C2244CFF666
:10088000FF7C52F80C3005F00C070F26BE40B34336
:10089000019E06FA07F73B4342F80C30A2684B680A
:1008A00042EA0A0743F60C4CDE0258BF22EA0A0766
:1008B000A760C4F2010CDCF800209E0242EA0A079D
:1008C00058BF22EA0A07CCF8007062689E0342EA29
:1008D0000A0758BF22EA0A0767602268DB0342EA78
:1008E0000A0758BF22EA0A07276053E703B0BDE8AA
:1008F000F08F000040F2AC10C2F2000000687047B8
:1009000040F2000040F2AC11C2F20000C2F200015D
:1009100000780A68104408607047000080B543F60C
:100920000040C4F20200016841F4007101600168F6
:1009300041F480610160016841F48071016003202D
:1009400000F086F80F2000F005F800F027F80020EE
:1009500080BD000070B540F20006C2F2000640F211
:1009600008013278C2F200014FF47A730968B3FBD0
:10097000F2F20446B1FBF2F1084600F061FB0F2CE5
:100980004FF0010508D838B94FF0FF30214600225A
:10099000002500F031F87460284670BD82B0002058
:1009A00043F640010190C4F202014A6842F48042D9
:1009B0004A604A6802F480420192019A00900868F5
:1009C00040F080500860086800F080500090009867
:1009D00002B07047002848BF704700F01F01012295
:1009E00002FA01F11C2202EAD0004EF20012CEF20D
:1009F000000281507047000010B54EF60C5CCEF23C
:100A0000000CDCF80030C3F3022E8EF00704042C37
:100A100028BF0424BEF103034FF0FF3E0EFA04F496
:100A200038BF0023A14399400EFA03F39A431143C0
:100A300000F00F0200F160430901043A03F564433A
:100A40006244002848BF02F10C03197010BD000079
:100A50004EF60C51CEF200010A684FF6FF031A4021
:100A600060F30A2242F0806040F0FD700860704739
:100A7000002804BF012070472DE9F04143F6080823
:100A8000C4F202080446D8F8F8030D4600F0070047
:100A9000814207D988F8F853D8F8F80300F0070026
:100AA000A84277D12068810717D5410705D5D8F826
:100AB000001041F4E051C8F80010010705D5D8F83E
:100AC000001041F46041C8F80010D8F80010A26886
:100AD00021F0F0011143C8F80010C00740D1D8F848
:100AE000F80300F00700854207D288F8F853D8F8D9
:100AF000F80300F00700A8424CD12068410707D551
:100B0000D8F80010E26821F4E0511143C8F8001051
:100B1000000708D5D8F80000216920F4604040EAB9
:100B2000C100C8F8000000F07DF8D8F8001042F2CB
:100B3000F862C1F30311C0F60202515C40F20802F0
:100B400020FA01F140F20400C2F200000068C2F293
:100B500000021160FFF7FEFE0020BDE8F08100BF3B
:100B60006068811E022907D258F8081C89015CBF01
:100B70000120BDE8F08111E0012807D158F8081CD8
:100B800089035CBF0120BDE8F08107E058F8081C2C
:100B9000890703D40120BDE8F08100BFD8F8001018
:100BA00021F003010843C8F80000FFF7A3FE064642
:100BB00041F28837D8F80000616800F00C00B0EB13
:100BC000810F8CD0FFF796FE801BB842F2D903202C
:100BD000BDE8F08140F2080043F60801C2F20000CF
:100BE000C4F202010068096842F20872C1F382216E
:100BF000C0F60202515CC8407047000040F2080095
:100C000043F60801C2F20000C4F20201006809685C
:100C100042F20872C1F34231C0F60202515CC84090
:100C20007047000010B543F60404C4F20204616882
:100C3000C1F3810142F20040C0F2F400DFE801F0AC
:100C400002040A0210BD00BF41F20020C0F27A0087
:100C500010BD00BF216801F03F02216823684902EE
:100C6000C3F3881106D4A1FB00010023FFF7A8FA03
:100C700007E000BF41F20020C0F27A004843B0FB19
:100C8000F2F021680222C1F3014102EB4101B0FB05
:100C9000F1F010BD002804BF012070472DE9F0419C
:100CA00082B00446007843F60006C007C4F202068C
:100CB0000CD0B06800F00C00042840F0818030684F
:100CC000800303D56068002800F0688120788007E1
:100CD0001BD5B06810F00C0F09D0B06800F00C0004
:100CE000082840F087807068400200F183803068F7
:100CF000800703D5E068012840F050813068216901
:100D000020F0F80040EAC10030602078000713D4DA
:100D1000207840072AD4A569002D00F03A81B068F8
:100D200000F00C00082840F0A580012D40F00E8155
:100D3000012002B0BDE8F0816069002800F08280E7
:100D40000020C4F247200121C0F8801EFFF7D2FD29
:100D5000054600BF706F8007DAD4FFF7CBFD401B5C
:100D60000228F7D9032002B0BDE8F081306C5FEAB9
:100D7000C0080AD400200190306C40F080503064EC
:100D8000306C00F080500190019847F20007C4F2E7
:100D900000073868C00547D4386840F48070386070
:100DA000FFF7A8FD054600BF3868C0053CD4FFF733
:100DB000A1FD401B0228F7D9032002B0BDE8F08155
:100DC000B06800F00C00082803D1706840023FF5BD
:100DD00076AF61683068B1F5803F07D0B1F5A02FDC
:100DE00040F09A8040F480203060306840F48030D9
:100DF00030609AE0E068002840F20000C4F247202A
:100E00005CD001210160FFF775FD05463068800761
:100E10003FF574AFFFF76EFD401B0228F6D90320A3
:100E200002B0BDE8F08100BFA168306F012905D094
:100E3000052955D140F004003067306F40F00100C3
:100E4000306756E00020C4F247200021C0F8801E21
:100E5000FFF750FD054600BF706F80077FF558AF64
:100E6000FFF748FD401B0228F6D9032002B0BDE879
:100E7000F08100BF0027C4F2472700203866FFF743
:100E800039FD022D05460DD13068800140F18A8080
:100E9000FFF730FD401B02284FF00300F4D902B0E9
:100EA000BDE8F0813068800173D5FFF723FD401B5A
:100EB00002284FF00300F5D9F1E700BF00210160DF
:100EC000FFF718FD054600BF306880077FF51DAFAE
:100ED000FFF710FD401B02284FF00300F4D9DEE7B6
:100EE00020F001003067306F002920F004003067E7
:100EF0007AD0FFF7FFFC054641F28837306F800754
:100F000000F18480FFF7F6FC401BB842F6D90320BD
:100F100002B0BDE8F08100BF20F48030306030685E
:100F2000002920F4802030607AD0FFF7E3FC0546EA
:100F3000306880033FF5CAAEFFF7DCFC401B642835
:100F4000F6D9032002B0BDE8F08100BF7068E16906
:100F500000F480028A4221D1216A00F03F028A42D5
:100F60001CD147F6C071626A0140B1EB821F15D1F6
:100F7000A16A4FF6FF73C903994300F44032A1F50B
:100F800080318A420AD1E16A00F07060B0EB016FF3
:100F900004D1002002B0BDE8F08100BF012002B002
:100FA000BDE8F08104F11C052FCD084340EA821012
:100FB000D9034FF6FF729143A1F5803140EA0560F5
:100FC0000843706001203866FFF794FC044600BFB8
:100FD00030688001DDD4FFF78DFC001B02284FF044
:100FE0000300F5D95BE700BFFFF784FC054641F23B
:100FF000883700BF306F800708D5FFF77BFC401BA8
:10100000B8424FF00300F5D949E700BFB8F1000F2F
:101010003FF581AE306C20F0805030647BE600BF3D
:10102000FFF768FC054600BF306880037FF54EAED1
:10103000FFF760FC401B64284FF00300F4D92EE753
:10104000411E0020B0EB116F1CBF012070474EF213
:101050001002CEF2000251604EF62351CEF2000192
:10106000F0230B70072190601160704790F83C20CE
:10107000012A4FF0020254D010B580F83D200268DA
:10108000D2F804E0D2F808C00C682EF070032343B5
:1010900041F2FF74C4F20004A24253600EDC40F23D
:1010A000FF73C4F200039A4216DCB2F1804F2BD0DA
:1010B00040F20043C4F2000324E000BF40F2FF33DB
:1010C000C4F201039A4213DC41F60003C4F20003A8
:1010D0009A4219D0002313E040F60003C4F2000343
:1010E0009A4211D040F60043C4F200030AE000BF68
:1010F00044F20003C4F201039A4205D040F20043D7
:10110000C4F201039A4204D149682CF080031943C8
:1011100091600121002280F83D1080F83C20BDE85C
:101120001040104670470000002804BF012070479F
:1011300010B5044690F83D0028B9002084F83C0022
:10114000204600F01FF8022084F83D002068211D91
:1011500001F0F2F8012084F8460084F83E0084F89B
:101160003F0084F8400084F8410084F8420084F88D
:10117000430084F8440084F8450084F83D000020D2
:1011800010BD0000006840F20041C4F20001884236
:1011900018BF704781B00020009043F64000C4F2B1
:1011A0000200016841F002010160006800F00200E5
:1011B0000090009801B0704790F83C20012A4FF051
:1011C00002026CD080B580F83D20D0F800C04FF608
:1011D0007772DCF8083023EA0202CCF808200B68AA
:1011E0004F2B29DC1F2B45DD202B46D0302B44D044
:1011F000402B40F0AF80D1F804E0C968DCF8203023
:10120000DCF8202022F00102CCF82020DCF81820A5
:1012100022F0F00242EA011123F00A0242EA0E0231
:10122000CCF81810CCF82020DCF8081041F0470169
:1012300021F0300128E000BF6F2B33DDB3F5005FF4
:1012400074D0B3F5805F21D0702B40F08380D1E95A
:1012500001E3C968DCF8082043EA0E0322F47F4268
:1012600043EA01211143CCF80810DCF8081041F0E2
:10127000770109E00BB1102B6CD1DCF8081021F0DC
:101280007001194341F00701CCF808100022012138
:1012900080F83D10002180F83C10BDE880401046E9
:1012A000704700BF502B21D0602B53D1D1F804E000
:1012B000C968DCF82030DCF8202022F01002CCF8DD
:1012C0002020DCF8182022F4704242EA013123F099
:1012D000A00242EA0E12CCF81810CCF82020DCF85C
:1012E000081041F0670121F01001CDE7D1F804E0CA
:1012F000C968DCF82030DCF8202022F00102CCF8AC
:101300002020DCF8182022F0F00242EA011123F03C
:101310000A0242EA0E02CCF81810CCF82020DCF8C1
:10132000081041F0570121F02001ADE7D1E901E3B8
:10133000C968DCF8082043EA0E0322F47F4243EA3E
:1013400001211143CCF80810DCF8081041F4804169
:101350009AE700BF01229AE7002804BF01207047E6
:101360002DE9F047044690F83D000D4628B90020CD
:1013700084F83C00204600F049F8022084F83D0043
:10138000206844F20702816891438160211D00F0CA
:10139000D3FF20684FF6FF7881688269D0F820C0BB
:1013A000D5E9003ED5E9026A43EA0109AB6922EAC0
:1013B000080246EA03234FF6FC46B343D5E9076724
:1013C00042EA0A0229691A4342EA062242EA011164
:1013D0002CF0AA026B6942EA0E0241EA073142EAA6
:1013E0000312C0F8089081610262012084F846006F
:1013F00084F83E0084F83F0084F8420084F84300FB
:1014000084F83D000020BDE8F087000080B586B07C
:1014100000210068C4F20101002288420592CDE952
:1014200003220292019201D006B080BD43F6300043
:101430000092C4F20200436943F00103436143692F
:1014400003F001030093009B0092036843F0100334
:101450000360006800F01000009000984FF42060D6
:1014600001900220CDE902020120059001F58830AB
:1014700001A90492FFF76EF906B080BD80B590F81F
:101480003E2090F83F3090F842E090F843C00429A5
:101490000AD0B9B9012A4FF0010208BFBEF1010F0D
:1014A00034D0104680BD00BF012B4FF0010208BFB1
:1014B000BCF1010FF5D1022180F83F1080F84310F4
:1014C00000681EE0012A4FF0010208BF012BE8D19D
:1014D000BEF1010FE5D1BCF1010FE2D1022280F88B
:1014E0003E2080F83F2080F8422080F8432091B1D0
:1014F0000068016A21F001010162016A41F0010105
:10150000016210216FF0100209E000BF022180F893
:101510003E1080F84210006801216FF00102036A5A
:101520001A400262026A114301620168002241F01E
:1015300001010160104680BD90F83C30012B04BFD2
:10154000022070474FEAB202032A00F2FF802DE921
:10155000F043DFE802F003B13F7F00BF036840F2D1
:1015600000461C6A1A6A24F0020422F001021A6280
:101570001A46D3F804C052F818EF8F6843F4806518
:10158000C4F20106B54244EA070405D1CF6824F04D
:101590000C0427F004073C430F68B54206D1D1E99B
:1015A00005582CF440762E4346EA080C2EF07306BC
:1015B0003743C3F804C09F614F6809695F631C62C9
:1015C0009F6947F008079F619F6927F004079F61A3
:1015D000B1E000BF036840F200481C6A1A6A24F4B4
:1015E000007422F480721A621A46D3F804C052F8CA
:1015F0001CEF8F6843F48065C4F20108454544EA56
:10160000072408D1CF6840F2FF463F0224F440642B
:1016100027EA06063443D1F80090454506D1D1E9C2
:1016200005562CF440572E4347EA061C2EF073074C
:1016300047EA0907C3F804C0DF614F680969DF633F
:101640001C62DF6947F00807DF61DF6927F00407E4
:10165000DF6170E0036840F20045D3F820C01A6AE9
:1016600043F4806722F480521A621A465C6852F88A
:101670001C8FD1F800E08E68C4F20105AF4204D19E
:101680004D6924F4804444EA85142CF4005747EA59
:10169000063728F4E64646EA0E265C60DE614E68B0
:1016A00009691E641F62DF6947F40067DF61DF6953
:1016B00027F48067DF613DE0036840F200481C6A60
:1016C0001A6A24F0200422F010021A621A46D3F893
:1016D00004C052F818EF8F6843F48065C4F2010823
:1016E000454544EA071407D1CF686FF0400624F05F
:1016F000C00406EA07163443D1F80090454506D1E8
:10170000D1E905562CF440672E4347EA860C2EF4A7
:10171000E64747EA0927C3F804C09F614F68096993
:101720009F631C629F6947F400679F619F6927F46C
:1017300080679F6109021368194311600021BDE8A9
:10174000F043002280F83C20084670470121002227
:1017500080F83C2008467047002804BF01207047ED
:1017600010B5044690F83D0028B9002084F83C00EC
:10177000204600F01FF8022084F83D002068211D5B
:1017800000F0DAFD012084F8460084F83E0084F879
:101790003F0084F8400084F8410084F8420084F857
:1017A000430084F8440084F8450084F83D0000209C
:1017B00010BD000070470000C1B1042908D00829FD
:1017C00014BF41224022825C012A05D016E000BFEE
:1017D0003F22825C012A11D10222082910D004295B
:1017E00014BF80F8412080F83F200BE090F83E20A5
:1017F000012A03D1022280F83E2003E00120704735
:1018000080F84020006801F01F010122036A02FAFB
:1018100001F123EA01020262026A114341F2FF72FE
:10182000C4F20002904201620CDC40F2FF71C4F28B
:101830000001884214DCB0F1804F37D040F2004103
:1018400016E000BF40F2FF31C4F20101884215DC0E
:1018500041F60001C4F20001884227D0002115E0C2
:1018600040F60001C4F2000188421FD040F600415A
:10187000C4F20001884219D01FE000BF44F2000109
:10188000C4F20101884211D040F20041C4F20101CA
:10189000884212D1416C40F2004340F48062C4F2AD
:1018A000010341F400419A42416406D1816801F08C
:1018B0000701062904BF00207047016841F00101BB
:1018C0000160002070470000704700007047000072
:1018D000B0B582B001680A68CC684B6902F02F0588
:1018E000202D04F0200505D125B102B0BDE8B0409F
:1018F00000F0C6BD5FEA027C1EBF03F0010E04F4D7
:10190000907313EB0E0341D1036BD50618D5012B51
:1019100016D114F0100313D0002201920A6801922C
:101920004A680192019A496949064BD4818DC28D5A
:10193000C38D002B18BF914240F0068202B0B0BDAB
:1019400013062DD514F080032AD090F84120212AC7
:10195000F4D18268B2F5805F03D10269002A00F0F9
:101960007982026A531C036212784A60C28C013A7F
:101970001304C284E2D1C86820F08000C860C8683F
:1019800040F04000C86002B0B0BD00BFD30718BF30
:1019900014F4807340F0E280530700F1E580EAE040
:1019A0005206CBD514F04002C8D0CA6822F04002DB
:1019B000CA60202180F8411002B0BDE8B04000F0BC
:1019C00005BB00BFC26B11684B68858D99B20029B9
:1019D00000F0B480A94280F0B180C385D169B1F52F
:1019E000807F00F0A080016851E8031F026821F4A5
:1019F000807142E80313DBB1016851E8031F0268FC
:101A000021F4807142E8031393B1016851E8031F88
:101A1000026821F4807142E803134BB1016851E878
:101A2000031F026821F4807142E80313002BDAD10E
:101A3000016851E8051F026821F0010142E8051321
:101A4000BBB3016851E8051F026821F0010142E8BB
:101A5000051373B3016851E8051F026821F0010105
:101A600042E805132BB3016851E8051F026821F015
:101A7000010142E80513002BDAD11AE0016851E8B0
:101A8000051F026821F0400142E80513DBB101683F
:101A900051E8051F026821F0400142E8051393B1A7
:101AA000016851E8051F026821F0400142E8051372
:101AB0004BB1016851E8051F026821F0400142E87E
:101AC0000513002BDAD1202180F842100021016398
:101AD000016851E8031F026821F0100142E8031376
:101AE000DBB1016851E8031F026821F0100142E8F0
:101AF000031393B1016851E8031F026821F010013C
:101B000042E803134BB1016851E8031F026821F05A
:101B1000100142E80313002BDAD1C16B04460846DA
:101B2000FEF716FC204602214163818DC28D891A81
:101B300089B202B0BDE8B040FFF7C6BE8D427FF467
:101B4000FDAED269B2F5807F7FF4F8AE0222426327
:101B500002B0BDE8B040FFF7B7BE00BF436C43F032
:101B600001034364530706D5BEF1000F03D0436C55
:101B700043F002034364930706D5BEF1000F03D080
:101B8000436C43F004034364BCF1000F06D55EEAE6
:101B9000050303D0436C43F008034364436C002BFC
:101BA0003FF4CCAE920605D525B1044600F068FCA2
:101BB000216820464969426C01F0400102F00802A8
:101BC000891800F0B98000BF016851E8031F02685E
:101BD00021F4907142E80313BBB3016851E8031F7D
:101BE000026821F4907142E8031373B3016851E86D
:101BF000031F026821F4907142E803132BB30168BC
:101C000051E8031F026821F4907142E80313002B8E
:101C1000DAD11AE0016851E8051F026821F00101DC
:101C200042E80513DBB1016851E8051F026821F0A5
:101C3000010142E8051393B1016851E8051F0268EC
:101C400021F0010142E805134BB1016851E8051F7D
:101C5000026821F0010142E80513002BDAD1016B83
:101C6000012924D1016851E8031F026821F0100105
:101C700042E80313DBB1016851E8031F026821F059
:101C8000100142E8031393B1016851E8031F026891
:101C900021F0100142E803134BB1016851E8031F22
:101CA000026821F0100142E80313002BDAD1202151
:101CB00080F842100021016301684969490640F13A
:101CC000C380016851E8051F026821F0400142E825
:101CD0000513DBB1016851E8051F026821F04001DE
:101CE00042E8051393B1016851E8051F026821F02D
:101CF000400142E805134BB1016851E8051F026835
:101D000021F0400142E80513002BDAD1C16B002914
:101D100000F09A8042F27542C0F60202044608467C
:101D20000A65FEF75DFB00283FF408AEE06B016D2D
:101D300002B0BDE8B04008470446FFF7C7FD0020E9
:101D4000606402B0B0BD00BF891A00BF026852E8EB
:101D5000032F036822F4907243E80325BDB30268A1
:101D600052E8032F036822F4907243E8032575B309
:101D7000026852E8032F036822F4907243E80325B7
:101D80002DB3026852E8032F036822F4907243E8EF
:101D90000325002DDAD11AE0026852E8052F036806
:101DA00022F0010243E80525DDB1026852E8052F63
:101DB000036822F0010243E8052595B1026852E864
:101DC000052F036822F0010243E805254DB10268A2
:101DD00052E8052F036822F0010243E80525002D93
:101DE000DAD1202280F8422000220263026852E801
:101DF000032F036822F0100243E80325DDB10268D7
:101E000052E8032F036822F0100243E8032595B13E
:101E1000026852E8032F036822F0100243E803250A
:101E20004DB1026852E8032F036822F0100243E824
:101E30000325002DDAD1022289B2426302B0BDE847
:101E4000B040FFF741BD00BF02B0BDE8B040FFF7B2
:101E50003DBD00BF026A32F8023B6FF35F234B6067
:101E6000026283E5002804BF0120704710B50446D4
:101E700090F8410028B9002084F84000204600F086
:101E800021F8242084F841002068C16821F4005121
:101E9000C160204600F074FB2068016921F4904184
:101EA0000161416921F02A014161C16841F4005199
:101EB000C16000202021606484F8411084F8421041
:101EC000606310BD2DE9F04387B0044641F2000085
:101ED0002168C4F20100002681420696CDE904661D
:101EE0000396029602D007B0BDE8F08343F63001B6
:101EF0000196C4F202014A6946F2404842F01002DB
:101F00004A614A6900F5704002F010020192019A9C
:101F100001960A68C4F2020842F001020A600968E8
:101F200001F00101019101994FF4C0610291022178
:101F3000CDE90316032105910721069102A9FEF7B9
:101F400009FC40F21405C2F200054FF000674FF49F
:101F500080692846C5E90087C5E90266C5E9049697
:101F6000C5E90666C5E90866FEF72EFB002818BF1E
:101F7000FEF7EAF9E563AC6340F2740508F1780016
:101F8000C2F200054021C5E9000705F10800002262
:101F900080E806022846C5E90522C5E907226A62EB
:101FA000FEF712FB002818BFFEF7CEF9252000210E
:101FB0000022A563AC63FEF71FFD2520FEF70AFD96
:101FC00007B0BDE8F08300007047000070470000D4
:101FD000FEE7000080B582B00020019043F630009B
:101FE000C4F202000168002241F48001016000682F
:101FF000002100F48000019001983A20FEF7FCFCDB
:102000003A20FEF7E7FC462000210022FEF7F4FC10
:10201000462002B0BDE88040FEF7DCBC80B586B04B
:10202000002043F630010590CDE90300CDE9010021
:102030000090C4F202010A6842F010020A600A68C5
:1020400002F010020092009A00900A6842F0040226
:102050000A600A6802F004020092009A00900A687E
:1020600042F080020A600A6802F080020092009A40
:1020700000900A6842F001020A60096801F001015B
:10208000009100991821CDE901100120039041F23F
:102090000000C4F2020001A9FEF75CFB06B080BD9F
:1020A00010B58CB040F2D4000021C2F20000C4F29E
:1020B00001010024012280E816000F214FF6FF7372
:1020C000CDE907140B9103A9CDE90044C0E903341D
:1020D000C0E90544CDE90324CDE90524CDE909246F
:1020E000FFF73AF9002818BFFEF72EF940F2D400A6
:1020F000C2F200006946CDE90044FEF7B7FF0028B0
:1021000018BFFEF721F90CB010BD0000B0B594B0B7
:1021100040F2004540F21C10C4F200050021C2F25A
:102120000000532263230D91CDE90B110991CDE9F4
:102130000711CDE90511CDE90311CDE90111C0E980
:102140000052C0E9021301618161FEF7EDFF002832
:1021500018BFFEF7F9F84FF480500A9040F21C10B7
:10216000C2F200000AA9FFF727F8002818BFFEF7FF
:10217000EBF840F21C10C2F20000FFF7EDFA002865
:1021800018BFFEF7E1F840F21C100024C2F2000074
:1021900008A9CDE90844FEF769FF002818BFFEF73B
:1021A000D3F86020CDE9010440F21C10C2F2000017
:1021B00001A9002203940594FFF7BEF9002818BF77
:1021C000FEF7C2F840F21C14C2F2000401A9204636
:1021D0000422FFF7B1F9002818BFFEF7B5F821680F
:1021E0000020A9421390CDE9110010900F9001D06A
:1021F00014B0B0BD43F630010E90C4F202010A687B
:1022000042F001020A60096801F001010E910E9985
:10221000C0210F910221CDE91010CDE9120105F581
:10222000FE300FA9FEF796FA14B0B0BD80B540F2AB
:10223000641041F20001C2F20000C4F20101002367
:102240004FF00C0C4FF4E13280E80E00C0E903338C
:10225000C0E905C3C361FFF705FE002808BF80BDC4
:10226000BDE88040FEF770B8FEE70000FEE7000022
:102270007047000070470000FEF742BB70B592B097
:1022800006AC20463021FDF7D3FF002543F6400081
:102290000595CDE90355CDE901550095C4F202003D
:1022A0000168022641F080510160006800F0805012
:1022B0000090009847F200000095C4F20000016809
:1022C00041F4804101600068A82100F48040009042
:1022D0000098012006904FF4803007904FF4800062
:1022E0000D9004200E90119020460C96CDE90F160B
:1022F000FEF7D0FC10B172B6FEE700BF0F20CDE9AB
:1023000001064FF4A05004904FF48050059001A8AE
:1023100005210395FEF7ACFB10B172B6FEE700BFD6
:1023200012B070BD4EF68850CEF20000016841F444
:102330007001016070470000B0B540F6FF3E0568CF
:10234000C4F2000E40F2004C7045C4F2010C25DCD2
:10235000B0F1804F2FD040F20043C4F20003984206
:1023600029D040F60003C4F20003984223D041F67E
:10237000FF73C4F20003984228DC70453ADCB0F1E8
:10238000804F5BD040F20043C4F20003984255D026
:1023900040F60003C4F200034EE000BF40F60043E5
:1023A000C4F20003984206D0604504D00023C4F272
:1023B00001039842DBD14B6825F0700243EA020525
:1023C00041F6FF73C4F200039842D6DD43F6FF7373
:1023D000C4F2010398421FDC42F20003C4F200037E
:1023E00098422BD00023C4F20103984226D06045C6
:1023F00024D028E040F60043C4F2000398421DD0E8
:1024000041F60003C4F20003984217D041F600439E
:10241000C4F2000310E000BF44F20003C4F2010361
:1024200098420BD044F60003C4F20103984205D051
:1024300044F20043C4F20103984204D1CB6825F46E
:10244000407243EA02050A688C684B69C46240F432
:1024500080648262644504BF09690163026825F0F3
:10246000800142F0040219430260012242610160CE
:10247000B0BD0000806B0021C185FFF727BA0000C6
:1024800081B090F84210222921D183680246B3F529
:10249000805F09D152F8281F52F8183C002B63D0F6
:1024A00003685B680AE000BF52F8281F13B903698C
:1024B000002BF5D003685B6803F07F030B70116895
:1024C00001311160C18D01390A04C18502D001B00A
:1024D000704700BF0168CA6822F02002CA60CA685B
:1024E00022F48072CA604A6922F001024A61202106
:1024F00080F8421000214163026B012A3CD1016344
:10250000016851E8031F026821F0100142E803133B
:10251000DBB1016851E8031F026821F0100142E8B5
:10252000031393B1016851E8031F026821F0100101
:1025300042E803134BB1016851E8031F026821F020
:10254000100142E80313002BDAD101680A68D206B1
:1025500006D5002200920A6800924968009100990D
:10256000818D01B0FFF7B0B9026852686FF35F2246
:1025700021F8022B8162A5E701B0FFF725BD00001D
:10258000B0B50446006804F108030ECB0569194391
:1025900025F440552A4302616269E3691143C26828
:1025A000194349F20C639A431143C1604169A2691E
:1025B00021F4407141F20043114340F48062C4F2BF
:1025C00001039A42416103D1FEF718FB02E000BF0C
:1025D000FEF700FBE1694FF69C7563681922C0F6AF
:1025E000FF75B1F5004FA0FB02011FD15A00DB0FB0
:1025F000FDF7E6FD48F21F51C5F2EB11A0FB0123E8
:102600005A0905F1805302FB0300322303EBC0009B
:10261000A0FB01014FF4F87000EA111000EB02106A
:10262000C1F34211084421688860B0BD9A009B0F35
:10263000FDF7C6FD48F21F51C5F2EB11A0FB0123C7
:102640005A0902FB0500322303EB0010A0FB010135
:10265000F02000EA511000EB0210C1F343110844CE
:1026600021688860B0BD000040F26410C2F2000032
:10267000FFF72EB9FEE700004EF608500021CEF21B
:102680000000C0F60201016062B6FEF747F9FFF7ED
:10269000F5FDFFF7C3FCFFF79DFCFFF7C7FDFFF754
:1026A00035FDFFF7FDFCFDF737FE40F2D404C2F222
:1026B000000420463C21FEF7E1FE2068142141621F
:1026C0000020FDF739FE5020FDF70CFE40F6B83033
:1026D000FEF72CF8FDF7FCFDF8E702E008C8121F32
:1026E00008C1002AFAD170477047002001E001C1FB
:1026F000121F002AFBD170470000000000000000FC
:102700000102030406070809000000000102030497
:1027100000061016000610163827020800000020D8
:1027200010000000DA2602084827020810000020E6
:10273000A0050000EA2602080100000010000000C9
:082740000024F4000000000079
:040000050802018963
:00000001FF
